{
  "_format": "hh-sol-artifact-1",
  "contractName": "ChildContract",
  "sourceName": "contracts/ParentChildContract.sol",
  "abi": [
    {
      "inputs": [
        {
          "internalType": "uint256",
          "name": "_data",
          "type": "uint256"
        }
      ],
      "stateMutability": "payable",
      "type": "constructor"
    },
    {
      "inputs": [],
      "name": "read",
      "outputs": [
        {
          "internalType": "uint256",
          "name": "",
          "type": "uint256"
        }
      ],
      "stateMutability": "view",
      "type": "function"
    },
    {
      "inputs": [],
      "name": "returnToSender",
      "outputs": [],
      "stateMutability": "nonpayable",
      "type": "function"
    },
    {
      "inputs": [],
      "name": "sender",
      "outputs": [
        {
          "internalType": "address payable",
          "name": "",
          "type": "address"
        }
      ],
      "stateMutability": "view",
      "type": "function"
    },
    {
      "inputs": [],
      "name": "value",
      "outputs": [
        {
          "internalType": "uint256",
          "name": "",
          "type": "uint256"
        }
      ],
      "stateMutability": "view",
      "type": "function"
    }
  ],
  "bytecode": "0x608060405260405161043b38038061043b833981810160405281019061002591906100b5565b806000819055503460018190555033600260006101000a81548173ffffffffffffffffffffffffffffffffffffffff021916908373ffffffffffffffffffffffffffffffffffffffff160217905550506100e2565b600080fd5b6000819050919050565b6100928161007f565b811461009d57600080fd5b50565b6000815190506100af81610089565b92915050565b6000602082840312156100cb576100ca61007a565b5b60006100d9848285016100a0565b91505092915050565b61034a806100f16000396000f3fe608060405234801561001057600080fd5b506004361061004c5760003560e01c80633fa4f2451461005157806357de26a41461006f57806367e404ce1461008d578063db171211146100ab575b600080fd5b6100596100b5565b60405161006691906101da565b60405180910390f35b6100776100bb565b60405161008491906101da565b60405180910390f35b6100956100c4565b6040516100a29190610236565b60405180910390f35b6100b36100ea565b005b60015481565b60008054905090565b600260009054906101000a900473ffffffffffffffffffffffffffffffffffffffff1681565b60004790506000600260009054906101000a900473ffffffffffffffffffffffffffffffffffffffff1673ffffffffffffffffffffffffffffffffffffffff168260405161013790610282565b60006040518083038185875af1925050503d8060008114610174576040519150601f19603f3d011682016040523d82523d6000602084013e610179565b606091505b50509050806101bd576040517f08c379a00000000000000000000000000000000000000000000000000000000081526004016101b4906102f4565b60405180910390fd5b5050565b6000819050919050565b6101d4816101c1565b82525050565b60006020820190506101ef60008301846101cb565b92915050565b600073ffffffffffffffffffffffffffffffffffffffff82169050919050565b6000610220826101f5565b9050919050565b61023081610215565b82525050565b600060208201905061024b6000830184610227565b92915050565b600081905092915050565b50565b600061026c600083610251565b91506102778261025c565b600082019050919050565b600061028d8261025f565b9150819050919050565b600082825260208201905092915050565b7f4661696c656420746f2073656e64204574686572000000000000000000000000600082015250565b60006102de601483610297565b91506102e9826102a8565b602082019050919050565b6000602082019050818103600083015261030d816102d1565b905091905056fea26469706673582212209986a8dce81b6b12d94ce52a98b005e6794b76e1ab5168cb254510fc7cd2b7f464736f6c63430008090033",
  "linkReferences": {},
  "deployedLinkReferences": {}
}