{
  "_format": "hh-sol-artifact-1",
  "contractName": "ParentContract",
  "sourceName": "contracts/ParentChildContract.sol",
  "abi": [
    {
      "inputs": [],
      "stateMutability": "payable",
      "type": "constructor"
    },
    {
      "inputs": [],
      "name": "child",
      "outputs": [
        {
          "internalType": "contract ChildContract",
          "name": "",
          "type": "address"
        }
      ],
      "stateMutability": "view",
      "type": "function"
    },
    {
      "inputs": [],
      "name": "childAddress",
      "outputs": [
        {
          "internalType": "address payable",
          "name": "",
          "type": "address"
        }
      ],
      "stateMutability": "view",
      "type": "function"
    },
    {
      "inputs": [],
      "name": "getPaidValue",
      "outputs": [
        {
          "internalType": "uint256",
          "name": "",
          "type": "uint256"
        }
      ],
      "stateMutability": "view",
      "type": "function"
    },
    {
      "inputs": [
        {
          "internalType": "uint256",
          "name": "initial_data",
          "type": "uint256"
        }
      ],
      "name": "installChild",
      "outputs": [
        {
          "internalType": "address payable",
          "name": "",
          "type": "address"
        }
      ],
      "stateMutability": "nonpayable",
      "type": "function"
    },
    {
      "inputs": [],
      "name": "value",
      "outputs": [
        {
          "internalType": "uint256",
          "name": "",
          "type": "uint256"
        }
      ],
      "stateMutability": "view",
      "type": "function"
    },
    {
      "stateMutability": "payable",
      "type": "receive"
    }
  ],
  "bytecode": "0x60806040523460018190555061082c8061001a6000396000f3fe60806040526004361061004e5760003560e01c8063237b5e961461005a5780633fa4f24514610085578063b8a947de146100b0578063c250e3ce146100db578063ca511ae61461011857610055565b3661005557005b600080fd5b34801561006657600080fd5b5061006f610143565b60405161007c91906102d2565b60405180910390f35b34801561009157600080fd5b5061009a610167565b6040516100a79190610306565b60405180910390f35b3480156100bc57600080fd5b506100c561016d565b6040516100d29190610342565b60405180910390f35b3480156100e757600080fd5b5061010260048036038101906100fd919061038e565b610196565b60405161010f9190610342565b60405180910390f35b34801561012457600080fd5b5061012d61023c565b60405161013a9190610306565b60405180910390f35b60008054906101000a900473ffffffffffffffffffffffffffffffffffffffff1681565b60015481565b60008060009054906101000a900473ffffffffffffffffffffffffffffffffffffffff16905090565b6000660110d9316ec000826040516101ad90610246565b6101b79190610306565b6040518091039082f09050801580156101d4573d6000803e3d6000fd5b506000806101000a81548173ffffffffffffffffffffffffffffffffffffffff021916908373ffffffffffffffffffffffffffffffffffffffff16021790555060008054906101000a900473ffffffffffffffffffffffffffffffffffffffff169050919050565b6000600154905090565b61043b806103bc83390190565b600073ffffffffffffffffffffffffffffffffffffffff82169050919050565b6000819050919050565b600061029861029361028e84610253565b610273565b610253565b9050919050565b60006102aa8261027d565b9050919050565b60006102bc8261029f565b9050919050565b6102cc816102b1565b82525050565b60006020820190506102e760008301846102c3565b92915050565b6000819050919050565b610300816102ed565b82525050565b600060208201905061031b60008301846102f7565b92915050565b600061032c82610253565b9050919050565b61033c81610321565b82525050565b60006020820190506103576000830184610333565b92915050565b600080fd5b61036b816102ed565b811461037657600080fd5b50565b60008135905061038881610362565b92915050565b6000602082840312156103a4576103a361035d565b5b60006103b284828501610379565b9150509291505056fe608060405260405161043b38038061043b833981810160405281019061002591906100b5565b806000819055503460018190555033600260006101000a81548173ffffffffffffffffffffffffffffffffffffffff021916908373ffffffffffffffffffffffffffffffffffffffff160217905550506100e2565b600080fd5b6000819050919050565b6100928161007f565b811461009d57600080fd5b50565b6000815190506100af81610089565b92915050565b6000602082840312156100cb576100ca61007a565b5b60006100d9848285016100a0565b91505092915050565b61034a806100f16000396000f3fe608060405234801561001057600080fd5b506004361061004c5760003560e01c80633fa4f2451461005157806357de26a41461006f57806367e404ce1461008d578063db171211146100ab575b600080fd5b6100596100b5565b60405161006691906101da565b60405180910390f35b6100776100bb565b60405161008491906101da565b60405180910390f35b6100956100c4565b6040516100a29190610236565b60405180910390f35b6100b36100ea565b005b60015481565b60008054905090565b600260009054906101000a900473ffffffffffffffffffffffffffffffffffffffff1681565b60004790506000600260009054906101000a900473ffffffffffffffffffffffffffffffffffffffff1673ffffffffffffffffffffffffffffffffffffffff168260405161013790610282565b60006040518083038185875af1925050503d8060008114610174576040519150601f19603f3d011682016040523d82523d6000602084013e610179565b606091505b50509050806101bd576040517f08c379a00000000000000000000000000000000000000000000000000000000081526004016101b4906102f4565b60405180910390fd5b5050565b6000819050919050565b6101d4816101c1565b82525050565b60006020820190506101ef60008301846101cb565b92915050565b600073ffffffffffffffffffffffffffffffffffffffff82169050919050565b6000610220826101f5565b9050919050565b61023081610215565b82525050565b600060208201905061024b6000830184610227565b92915050565b600081905092915050565b50565b600061026c600083610251565b91506102778261025c565b600082019050919050565b600061028d8261025f565b9150819050919050565b600082825260208201905092915050565b7f4661696c656420746f2073656e64204574686572000000000000000000000000600082015250565b60006102de601483610297565b91506102e9826102a8565b602082019050919050565b6000602082019050818103600083015261030d816102d1565b905091905056fea26469706673582212209986a8dce81b6b12d94ce52a98b005e6794b76e1ab5168cb254510fc7cd2b7f464736f6c63430008090033a2646970667358221220f6cbf36e98a235deca97b75d221d26e3f00a019ccabaf19c04691b93117df2b164736f6c63430008090033",
  "linkReferences": {},
  "deployedLinkReferences": {}
}