{
  "_format": "hh-sol-artifact-1",
  "contractName": "Storage",
  "sourceName": "contracts/Storage.sol",
  "abi": [
    {
      "inputs": [],
      "name": "retrieve",
      "outputs": [
        {
          "internalType": "uint256",
          "name": "",
          "type": "uint256"
        }
      ],
      "stateMutability": "view",
      "type": "function"
    },
    {
      "inputs": [
        {
          "internalType": "uint256",
          "name": "num",
          "type": "uint256"
        }
      ],
      "name": "store",
      "outputs": [],
      "stateMutability": "nonpayable",
      "type": "function"
    },
    {
      "inputs": [],
      "name": "wtf",
      "outputs": [],
      "stateMutability": "nonpayable",
      "type": "function"
    }
  ],
  "bytecode": "0x608060405261040060005534801561001657600080fd5b5061017f806100266000396000f3fe608060405234801561001057600080fd5b50600436106100415760003560e01c80632e64cec11461004657806336b62288146100645780636057361d1461006e575b600080fd5b61004e61008a565b60405161005b91906100d0565b60405180910390f35b61006c610093565b005b6100886004803603810190610083919061011c565b6100ad565b005b60008054905090565b600073ffffffffffffffffffffffffffffffffffffffff16ff5b8060008190555050565b6000819050919050565b6100ca816100b7565b82525050565b60006020820190506100e560008301846100c1565b92915050565b600080fd5b6100f9816100b7565b811461010457600080fd5b50565b600081359050610116816100f0565b92915050565b600060208284031215610132576101316100eb565b5b600061014084828501610107565b9150509291505056fea2646970667358221220f5a939e7e9a7e7987be27b8323ebeac21de4a75455d507f7617c1b9bb6dd8bb964736f6c63430008090033",
  "linkReferences": {},
  "deployedLinkReferences": {}
}